:100A5400C0F9A4B0999282F880908883C6A1868E4A
:100A6400696E707574207468652070617373636F48
:100A74000064653A20202020202D2D2D2D2D2D2D94
:100A84002D002A007269676874202020285E5F5E4A
:100A94002920202000666972737420206572726FA9
:100AA4007221212121007365636F6E642065727267
:100AB4006F72212121210074686972642065727249
:100AC4006F722073656520007520746F6D6F72728C
:100AD4006F7720285E5F5E2900646566696E652015
:100AE400746865207061737363006F64653A2020D5
:100AF40020202D2D2D2D2D2D2D2D00636F6465208F
:0C0B040020206973202020206E657700FF
:03101D000163006C
:0510170012101CD2B014
:01101C0022B1
:0D0FD300EFD3940040077E64DEFE1F80F324
:010FE00022EE
:0D0FE100EFD3940040077EC8DEFE1F80F3B2
:010FEE0022E0
:0E0DB500900A64E52D93FF120FB37F057E00B8
:100DC300D3EF9400EE940040147D6E7C00ED1D7013
:0D0DD300011CED4C70F7EF1F70E61E80E371
:010DE00022F0
:0A0FEF00D2B1121017C2B102101C9B
:0A0FF900C2B1121017D2B102101C91
:080E6D00120FEF7FA0120E0628
:100E7500D2B012101C30B10BE509C394FA50040529
:080E85000980F2C2B002101C4A
:0F0FC400D2B0121017C2B012101CC2B102101C12
:100E0600E4FEEF25E0FFC2B012101C92B1121017DB
:100E1600C2B012101C0EBE08E9C2B012101CD2B12C
:030E260002101C9B
:100DE100C2B012101CD2B112101CE4FED2B012100B
:100DF1001CEF25E0FDA2B1E4334DFFC2B012101C7F
:040E01000EBE08E831
:010E050022CA
:100EA700AC07120E6DAF04120E06120E75AF0512C7
:080EB7000E06120E75020FF980
:020E2900AD0713
:100E2B00120E6DAF05120E06120E75120FEF7FA18B
:0F0E3B00120E06120E75120DE1120FC4120FF9EE
:010E4A002285
:070EBF007F01120EC67F80C7
:100EC600C2A6C2A78F80120DBFD2A7120DBFC2A79E
:010ED60022F9
:100FB300D2A6C2A78F80120DBFD2A7120DBFC2A7A0
:010FC300220B
:100E4B00E4FF74302FF8E6FE74212FF8E6B50604A4
:100E5B00D2058004C2057F080FEFC3940840E3A2BC
:010E6B000581
:010E6C002263
:100E8D00E4FB7FC8120EC6EBC39563500C900A8627
:090E9D00E493FF120FB30B80EE89
:010EA6002229
:100ED70074302563F8E4F605633000097421252E84
:060EE700F8E4F6052E22DE
:100EED0074302563F8760105633000097421252ED1
:060EFD00F87601052E222B
:100F030074302563F8760205633000097421252EB9
:060F1300F87602052E2213
:100F190074302563F8760305633000097421252EA2
:060F2900F87603052E22FC
:100F2F0074302563F8760405633000097421252E8B
:060F3F00F87604052E22E5
:100F450074302563F8760505633000097421252E74
:060F5500F87605052E22CE
:100F5B0074302563F8760605633000097421252E5D
:060F6B00F87606052E22B7
:100F710074302563F8760705633000097421252E46
:060F8100F87607052E22A0
:100F870074302563F8760805633000097421252E2F
:060F9700F87608052E2289
:100F9D0074302563F8760905633000097421252E18
:060FAD00F87609052E2272
:10094500D201E563B40807120E4B92028002C2027F
:10095500200103020A53C201E4F563F52D120DBF10
:100965007430252DF8760F052DE52DC3940840ED3F
:10097500D28EE4F52C300218F52F120EBFE4F52DBA
:10098500900A88120DB8052DE52DC3941040F1226B
:10099500E4F563C2A1C2A2052FE52F6401702EF50F
:1009A5002D120DBF7430252DF8760F052DE52DC3BD
:1009B500940840ED120EBFE4F52DE52D900A99122D
:1009C5000DBA052DE52DC3941040EFD28EE52F64A9
:1009D50002702EF52D120DBF7430252DF8760F05FA
:1009E5002DE52DC3940840ED120EBFE4F52DE52D40
:1009F500900AAA120DBA052DE52DC3941040EFD229
:100A05008EE52F64037047F52D120DBF7430252D2B
:100A1500F8760F052DE52DC3940840ED120EBFE4C1
:100A2500F52DE52D900ABB120DBA052DE52DC394C4
:100A35001040EF7FC0120EC6E4F52DE52D900ACCCF
:0F0A4500120DBA052DE52DC3941040EFC28E227D
:0A10030074302563F8760B056322B4
:100D7D00E4F5637F80120EC6E4F52D120DB5052D39
:100D8D00E52DC3941040F47FC0120EC6E4F52DE599
:100D9D002D900A75120DBA7430252DF8760F052D8C
:080DAD00E52DC3941040E8227B
:100D0200E4F509F563D200120EBFE4F52DE52D904E
:100D12000ADD120DBA7430252DF8760F052DE52D5A
:100D2200C3941040E87FC0120EC6E4F52DE52D9065
:100D32000AEE120DBA052DE52DC3941040EFD28CA8
:010D4200228E
:100CC000E4F563D203300339C203F52EF52D7430F9
:100CD000252DF8760F052DE52DB410F2120EBFE488
:100CE000F52DE52D900AFF93FF120FB37F647E0070
:100CF000120DC3052DE52DC3941040E6D28EE4F508
:020D00002C22A3
:0A100D0074302563F8760F056322A6
:03001B00020B9C39
:100B9C00C0E0C083C082C0D075D000C004C005C006
:100BAC0006C007758D3C758BB0E52CC394145004AE
:100BBC00052C8036C28E752C00C202D2A1D2A21294
:100BCC000EBF752D00120DB5052DE52DC3941040EB
:100BDC00F47FC0120EC6752D00E52D900A75120D0E
:100BEC00BA052DE52DC3941040EFD007D006D005E3
:0B0BFC00D004D0D0D082D083D0E032F3
:03000B00020C7173
:100C7100C0E0C0F0C083C082C0D075D000C000C049
:100C810001C002C003C004C005C006C007758C3C8A
:100C9100758AB0E52EC3940850051208008005C27C
:100CA1008C752E00D007D006D005D004D003D00219
:0F0CB100D001D000D0D0D082D083D0F0D0E032AC
:100C0700C2A77F38120EC67F0C120EC67F06120EC1
:100C1700C6120EBF758911758CF8758A30758D3CB3
:100C2700758BB0C28ED2ABD2AFC28CD2A9E4F52BF2
:100C3700C201C202D2A1D2B17F05FE120DC3D2B04A
:100C4700120DBFE4FBAF037D08120EA77F64120FDE
:100C5700E10BBB08F0E4FBAF03120E2974212BF85C
:090C6700A607120DBF0BBB08EE3D
:010C70002261
:100D4300C2A5120C077F80120EC6E4F52D120DB555
:100D5300052DE52DC3941040F47FC0120EC6E4F5B3
:100D63002DE52D900A75120DBA052DE52DC39410AE
:0A0D730040EF120800120E8D80F808
:100800007590FE8590295329F0E52964F060427FB8
:10081000647E00120DC3E52964F06035859029E5FA
:10082000292482601B24C0601224E0600924F07037
:1008300012120ED7800D120EED8008120F038003E6
:10084000120F19E52964F060088590295329F0807A
:10085000F27590FD8590295329F0E52964F06042F6
:100860007F647E00120DC3E52964F0603585902910
:10087000E5292483601B24C0601224E0600924F071
:100880007012120F2F800D120F458008120F5B801F
:1008900003120F71E52964F060088590295329F04F
:1008A00080F27590FB8590295329F0E52964F0606A
:1008B000427F647E00120DC3E52964F060358590A7
:1008C00029E5292485601B24C0601224E0600924E6
:1008D000F07012120F87800D120F9D8008120945CB
:1008E0008003121003E52964F060088590295329DC
:1008F000F080F27590F78590295329F0E52964F08E
:1009000060427F647E00120DC3E52964F060358586
:100910009029E5292489601B24C0601224E0600925
:1009200024F07012120D7D800D120D028008120C41
:10093000C0800312100DE52964F0600885902953EA
:0509400029F080F22205
:03000000020B10E0
:0C0B1000787FE4F6D8FD758163020B5776
:100B1C00020D43E493A3F8E493A34003F68001F29F
:100B2C0008DFF48029E493A3F85407240CC8C333DA
:100B3C00C4540F4420C8834004F456800146F6DFA9
:100B4C00E4800B010204081020408090101DE47E0C
:100B5C00019360BCA3FF543F30E509541FFEE4939E
:100B6C00A360010ECF54C025E060A840B8E493A365
:100B7C00FAE493A3F8E493A3C8C582C8CAC583CA90
:100B8C00F0A3C8C582C8CAC583CADFE9DEE780BE48
:0110200000CF
:00000001FF
